:03000000020A20D1
:100800008F0D7D07120A1192977D06AF0D120A1106
:1008100092967D05AF0D120A1192957D04AF0D12CF
:100820000A119294D293D292C2927D03AF0D120A12
:100830001192977D02AF0D120A1192967D01AF0DB4
:10084000120A119295E4FDAF0D120A119294D29200
:10085000C292020A2C120982D200C2011209A2D24B
:1008600000D201D2021209DE7BFF7A0879F3120965
:10087000577F401208A57BFF7A097911120957208A
:10088000A5051209FA80F820A60C30A709D200C2EB
:10089000011209C180E930A6E620A7E3D200D20107
:1008A0001209C180DA8F08C293D2977D06120A110D
:1008B00092967D05AF08120A1192957D04AF081239
:1008C0000A119294D292C2927D03AF08120A119239
:1008D000977D02AF08120A1192967D01AF08120AA5
:1008E000119295E4FDAF08120A119294D292C2922D
:1008F000020A2C456453696D3531204C4344204D28
:100900006F64756C652053696D756C6174696F6E89
:10091000004261736564206F6E204869746163688A
:1009200069204844343437383000BB010CE5822953
:10093000F582E5833AF583E0225006E92582F8E660
:1009400022BBFE06E92582F8E222E58229F582E54E
:10095000833AF583E493228B088A09890AE4F50B2C
:10096000F50CAB08AA09A90A850C82850B8312092C
:100970002AFF600D120800050CE50C70E5050B80E0
:10098000E122C297C296D295C294C293D292C292E9
:10099000120A2CD292C292D297C296D292C29202DC
:1009A0000A2CC293C297C296C295C294D292C292A6
:1009B000D296A2009295A2019294D292C292020A79
:1009C0002CC293C297C296C295D294D292C292A2DE
:1009D000009297A2019296D292C292020A2CE4F55A
:1009E00090D292C292D297A2009296A2019295A220
:1009F000029294D292C292020A2CC293C297C296D9
:100A0000C295C294D292C292D295D292C292020A56
:100A10002CAE05EFA806088003A2E713D8FB13222B
:100A2000787FE4F6D8FD758120020855E4FF0FBFFA
:030A300032FC2273
:00000001FF